{
  "contractName": "MoonDust",
  "abi": [
    {
      "inputs": [],
      "payable": false,
      "stateMutability": "nonpayable",
      "type": "constructor"
    },
    {
      "anonymous": false,
      "inputs": [
        {
          "indexed": true,
          "internalType": "address",
          "name": "owner",
          "type": "address"
        },
        {
          "indexed": true,
          "internalType": "address",
          "name": "spender",
          "type": "address"
        },
        {
          "indexed": false,
          "internalType": "uint256",
          "name": "value",
          "type": "uint256"
        }
      ],
      "name": "Approval",
      "type": "event"
    },
    {
      "anonymous": false,
      "inputs": [
        {
          "indexed": true,
          "internalType": "address",
          "name": "from",
          "type": "address"
        },
        {
          "indexed": true,
          "internalType": "address",
          "name": "to",
          "type": "address"
        },
        {
          "indexed": false,
          "internalType": "uint256",
          "name": "value",
          "type": "uint256"
        }
      ],
      "name": "Transfer",
      "type": "event"
    },
    {
      "constant": true,
      "inputs": [],
      "name": "decimals",
      "outputs": [
        {
          "internalType": "uint8",
          "name": "",
          "type": "uint8"
        }
      ],
      "payable": false,
      "stateMutability": "view",
      "type": "function"
    },
    {
      "constant": false,
      "inputs": [
        {
          "internalType": "address",
          "name": "spender",
          "type": "address"
        },
        {
          "internalType": "uint256",
          "name": "subtractedValue",
          "type": "uint256"
        }
      ],
      "name": "decreaseAllowance",
      "outputs": [
        {
          "internalType": "bool",
          "name": "",
          "type": "bool"
        }
      ],
      "payable": false,
      "stateMutability": "nonpayable",
      "type": "function"
    },
    {
      "constant": false,
      "inputs": [
        {
          "internalType": "address",
          "name": "spender",
          "type": "address"
        },
        {
          "internalType": "uint256",
          "name": "addedValue",
          "type": "uint256"
        }
      ],
      "name": "increaseAllowance",
      "outputs": [
        {
          "internalType": "bool",
          "name": "",
          "type": "bool"
        }
      ],
      "payable": false,
      "stateMutability": "nonpayable",
      "type": "function"
    },
    {
      "constant": true,
      "inputs": [],
      "name": "name",
      "outputs": [
        {
          "internalType": "string",
          "name": "",
          "type": "string"
        }
      ],
      "payable": false,
      "stateMutability": "view",
      "type": "function"
    },
    {
      "constant": true,
      "inputs": [],
      "name": "symbol",
      "outputs": [
        {
          "internalType": "string",
          "name": "",
          "type": "string"
        }
      ],
      "payable": false,
      "stateMutability": "view",
      "type": "function"
    },
    {
      "constant": false,
      "inputs": [
        {
          "internalType": "address",
          "name": "sender",
          "type": "address"
        },
        {
          "internalType": "address",
          "name": "recipient",
          "type": "address"
        },
        {
          "internalType": "uint256",
          "name": "amount",
          "type": "uint256"
        }
      ],
      "name": "transferFrom",
      "outputs": [
        {
          "internalType": "bool",
          "name": "",
          "type": "bool"
        }
      ],
      "payable": false,
      "stateMutability": "nonpayable",
      "type": "function"
    },
    {
      "constant": true,
      "inputs": [],
      "name": "totalSupply",
      "outputs": [
        {
          "internalType": "uint256",
          "name": "",
          "type": "uint256"
        }
      ],
      "payable": false,
      "stateMutability": "view",
      "type": "function"
    },
    {
      "constant": true,
      "inputs": [
        {
          "internalType": "address",
          "name": "tokenOwner",
          "type": "address"
        }
      ],
      "name": "balanceOf",
      "outputs": [
        {
          "internalType": "uint256",
          "name": "",
          "type": "uint256"
        }
      ],
      "payable": false,
      "stateMutability": "view",
      "type": "function"
    },
    {
      "constant": false,
      "inputs": [
        {
          "internalType": "address",
          "name": "receiver",
          "type": "address"
        },
        {
          "internalType": "uint256",
          "name": "numTokens",
          "type": "uint256"
        }
      ],
      "name": "transfer",
      "outputs": [
        {
          "internalType": "bool",
          "name": "",
          "type": "bool"
        }
      ],
      "payable": false,
      "stateMutability": "nonpayable",
      "type": "function"
    },
    {
      "constant": false,
      "inputs": [
        {
          "internalType": "address",
          "name": "delegate",
          "type": "address"
        },
        {
          "internalType": "uint256",
          "name": "numTokens",
          "type": "uint256"
        }
      ],
      "name": "approve",
      "outputs": [
        {
          "internalType": "bool",
          "name": "",
          "type": "bool"
        }
      ],
      "payable": false,
      "stateMutability": "nonpayable",
      "type": "function"
    },
    {
      "constant": true,
      "inputs": [
        {
          "internalType": "address",
          "name": "owner",
          "type": "address"
        },
        {
          "internalType": "address",
          "name": "delegate",
          "type": "address"
        }
      ],
      "name": "allowance",
      "outputs": [
        {
          "internalType": "uint256",
          "name": "",
          "type": "uint256"
        }
      ],
      "payable": false,
      "stateMutability": "view",
      "type": "function"
    }
  ],
  "bytecode": "0x608060405269152d02c7e14af680000060035534801561001e57600080fd5b50600680546001600160a01b0319163390811790915560035460009182526004602052604090912055610a10806100566000396000f3fe608060405234801561001057600080fd5b50600436106100a95760003560e01c8063395093511161007157806339509351146101d957806370a082311461020557806395d89b411461022b578063a457c2d714610233578063a9059cbb1461025f578063dd62ed3e1461028b576100a9565b806306fdde03146100ae578063095ea7b31461012b57806318160ddd1461016b57806323b872dd14610185578063313ce567146101bb575b600080fd5b6100b66102b9565b6040805160208082528351818301528351919283929083019185019080838360005b838110156100f05781810151838201526020016100d8565b50505050905090810190601f16801561011d5780820380516001836020036101000a031916815260200191505b509250505060405180910390f35b6101576004803603604081101561014157600080fd5b506001600160a01b0381351690602001356102dd565b604080519115158252519081900360200190f35b610173610343565b60408051918252519081900360200190f35b6101576004803603606081101561019b57600080fd5b506001600160a01b03813581169160208101359091169060400135610349565b6101c36103d6565b6040805160ff9092168252519081900360200190f35b610157600480360360408110156101ef57600080fd5b506001600160a01b0381351690602001356103db565b6101736004803603602081101561021b57600080fd5b50356001600160a01b0316610438565b6100b6610453565b6101576004803603604081101561024957600080fd5b506001600160a01b038135169060200135610473565b6101576004803603604081101561027557600080fd5b506001600160a01b0381351690602001356104e1565b610173600480360360408110156102a157600080fd5b506001600160a01b038135811691602001351661056b565b60405180604001604052806008815260200167135bdbdb991d5cdd60c21b81525081565b3360008181526005602090815260408083206001600160a01b038716808552908352818420869055815186815291519394909390927f8c5be1e5ebec7d5bd14f71427d1e84f3dd0314c0f7b2291e5b200ac8c7c3b925928290030190a350600192915050565b60035490565b6000610356848484610596565b6103cc846103626106f2565b6103c785604051806060016040528060288152602001610946602891396001600160a01b038a166000908152600160205260408120906103a06106f2565b6001600160a01b03168152602081019190915260400160002054919063ffffffff6106f616565b61078d565b5060019392505050565b601281565b600061042f6103e86106f2565b846103c785600160006103f96106f2565b6001600160a01b03908116825260208083019390935260409182016000908120918c16815292529020549063ffffffff61087916565b50600192915050565b6001600160a01b031660009081526004602052604090205490565b60405180604001604052806004815260200163135bdbd160e21b81525081565b600061042f6104806106f2565b846103c7856040518060600160405280602581526020016109b760259139600160006104aa6106f2565b6001600160a01b03908116825260208083019390935260409182016000908120918d1681529252902054919063ffffffff6106f616565b336000908152600460205260408120548211156104fd57600080fd5b336000818152600460209081526040808320805487900390556001600160a01b03871680845292819020805487019055805186815290519293927fddf252ad1be2c89b69c2b068fc378daa952ba7f163c4a11628f55a4df523b3ef929181900390910190a350600192915050565b6001600160a01b03918216600090815260056020908152604080832093909416825291909152205490565b6001600160a01b0383166105db5760405162461bcd60e51b815260040180806020018281038252602581526020018061096e6025913960400191505060405180910390fd5b6001600160a01b0382166106205760405162461bcd60e51b81526004018080602001828103825260238152602001806108db6023913960400191505060405180910390fd5b61066381604051806060016040528060268152602001610920602691396001600160a01b038616600090815260208190526040902054919063ffffffff6106f616565b6001600160a01b038085166000908152602081905260408082209390935590841681522054610698908263ffffffff61087916565b6001600160a01b038084166000818152602081815260409182902094909455805185815290519193928716927fddf252ad1be2c89b69c2b068fc378daa952ba7f163c4a11628f55a4df523b3ef92918290030190a3505050565b3390565b600081848411156107855760405162461bcd60e51b81526004018080602001828103825283818151815260200191508051906020019080838360005b8381101561074a578181015183820152602001610732565b50505050905090810190601f1680156107775780820380516001836020036101000a031916815260200191505b509250505060405180910390fd5b505050900390565b6001600160a01b0383166107d25760405162461bcd60e51b81526004018080602001828103825260248152602001806109936024913960400191505060405180910390fd5b6001600160a01b0382166108175760405162461bcd60e51b81526004018080602001828103825260228152602001806108fe6022913960400191505060405180910390fd5b6001600160a01b03808416600081815260016020908152604080832094871680845294825291829020859055815185815291517f8c5be1e5ebec7d5bd14f71427d1e84f3dd0314c0f7b2291e5b200ac8c7c3b9259281900390910190a3505050565b6000828201838110156108d3576040805162461bcd60e51b815260206004820152601b60248201527f536166654d6174683a206164646974696f6e206f766572666c6f770000000000604482015290519081900360640190fd5b939250505056fe45524332303a207472616e7366657220746f20746865207a65726f206164647265737345524332303a20617070726f766520746f20746865207a65726f206164647265737345524332303a207472616e7366657220616d6f756e7420657863656564732062616c616e636545524332303a207472616e7366657220616d6f756e74206578636565647320616c6c6f77616e636545524332303a207472616e736665722066726f6d20746865207a65726f206164647265737345524332303a20617070726f76652066726f6d20746865207a65726f206164647265737345524332303a2064656372656173656420616c6c6f77616e63652062656c6f77207a65726fa265627a7a72315820ea664e015ed61ae1d0660e6bace82b293eb40c122461a2735d5f56e69016ade964736f6c63430005110032",
  "source": "pragma solidity ^0.5.0;\n\n\nimport \"@openzeppelin/contracts/token/ERC20/ERC20.sol\";\ncontract MoonDust is ERC20 {\n    uint256 totalSupply_ = 100000000000000000000000;\n    string public constant name = \"Moondust\";\n\tstring public constant symbol = \"MooD\";\n\tuint8 public constant decimals = 18;\n\n\tmapping(address => uint256) balances;\n\tmapping(address => mapping (address => uint256)) allowed;\n    address owner;\n\n    constructor() public ERC20() {\n        owner = msg.sender;\n \n   \t\tbalances[msg.sender] = totalSupply_;\n        \n\n    }\n    function totalSupply() public view returns (uint256) {\n \t return totalSupply_;\n\t}\n\n\tfunction balanceOf(address tokenOwner) public view returns (uint) {\n\t  return balances[tokenOwner];\n\t}\n\n\tfunction transfer(address receiver,\n                 uint numTokens) public returns (bool) {\n  require(numTokens <= balances[msg.sender]);\n  balances[msg.sender] = balances[msg.sender] - numTokens;\n  balances[receiver] = balances[receiver] + numTokens;\n  emit Transfer(msg.sender, receiver, numTokens);\n  return true;\n}\nfunction approve(address delegate,\n                uint numTokens) public returns (bool) {\n  allowed[msg.sender][delegate] = numTokens;\n  emit Approval(msg.sender, delegate, numTokens);\n  return true;\n}\nfunction allowance(address owner,\n                  address delegate) public view returns (uint) {\n  return allowed[owner][delegate];\n}\n\n}",
  "sourcePath": "/home/alexandre/Dev/harmony/Hackathon/tokentruth/contracts/MoonDust.sol",
  "compiler": {
    "name": "solc",
    "version": "0.5.17+commit.d19bba13.Emscripten.clang"
  },
  "schemaVersion": "3.3.2",
  "updatedAt": "2021-01-31T17:27:45.474Z",
  "devdoc": {
    "methods": {
      "decreaseAllowance(address,uint256)": {
        "details": "Atomically decreases the allowance granted to `spender` by the caller.     * This is an alternative to {approve} that can be used as a mitigation for problems described in {IERC20-approve}.     * Emits an {Approval} event indicating the updated allowance.     * Requirements:     * - `spender` cannot be the zero address. - `spender` must have allowance for the caller of at least `subtractedValue`."
      },
      "increaseAllowance(address,uint256)": {
        "details": "Atomically increases the allowance granted to `spender` by the caller.     * This is an alternative to {approve} that can be used as a mitigation for problems described in {IERC20-approve}.     * Emits an {Approval} event indicating the updated allowance.     * Requirements:     * - `spender` cannot be the zero address."
      },
      "transferFrom(address,address,uint256)": {
        "details": "See {IERC20-transferFrom}.     * Emits an {Approval} event indicating the updated allowance. This is not required by the EIP. See the note at the beginning of {ERC20};     * Requirements: - `sender` and `recipient` cannot be the zero address. - `sender` must have a balance of at least `amount`. - the caller must have allowance for `sender`'s tokens of at least `amount`."
      }
    }
  },
  "userdoc": {
    "methods": {}
  }
}