{
  "contractName": "ProposeToken",
  "abi": [
    {
      "inputs": [
        {
          "internalType": "address",
          "name": "_tokenAddr",
          "type": "address"
        },
        {
          "internalType": "string",
          "name": "_tokenName",
          "type": "string"
        },
        {
          "internalType": "string",
          "name": "_tokenSymbol",
          "type": "string"
        },
        {
          "internalType": "uint256",
          "name": "_decimals",
          "type": "uint256"
        },
        {
          "internalType": "string",
          "name": "_tokenImg",
          "type": "string"
        }
      ],
      "payable": false,
      "stateMutability": "nonpayable",
      "type": "constructor"
    },
    {
      "constant": false,
      "inputs": [
        {
          "internalType": "bool",
          "name": "_vote",
          "type": "bool"
        },
        {
          "internalType": "address",
          "name": "_voter",
          "type": "address"
        }
      ],
      "name": "vote",
      "outputs": [],
      "payable": false,
      "stateMutability": "nonpayable",
      "type": "function"
    },
    {
      "constant": true,
      "inputs": [],
      "name": "getsymbol",
      "outputs": [
        {
          "internalType": "string",
          "name": "",
          "type": "string"
        }
      ],
      "payable": false,
      "stateMutability": "view",
      "type": "function"
    },
    {
      "constant": true,
      "inputs": [],
      "name": "getaddr",
      "outputs": [
        {
          "internalType": "address",
          "name": "",
          "type": "address"
        }
      ],
      "payable": false,
      "stateMutability": "view",
      "type": "function"
    },
    {
      "constant": true,
      "inputs": [],
      "name": "getdecimal",
      "outputs": [
        {
          "internalType": "uint256",
          "name": "",
          "type": "uint256"
        }
      ],
      "payable": false,
      "stateMutability": "view",
      "type": "function"
    },
    {
      "constant": true,
      "inputs": [],
      "name": "getimg",
      "outputs": [
        {
          "internalType": "string",
          "name": "",
          "type": "string"
        }
      ],
      "payable": false,
      "stateMutability": "view",
      "type": "function"
    },
    {
      "constant": true,
      "inputs": [],
      "name": "getTokenDetails",
      "outputs": [
        {
          "internalType": "address",
          "name": "",
          "type": "address"
        },
        {
          "internalType": "string",
          "name": "",
          "type": "string"
        },
        {
          "internalType": "string",
          "name": "",
          "type": "string"
        },
        {
          "internalType": "uint256",
          "name": "",
          "type": "uint256"
        },
        {
          "internalType": "string",
          "name": "",
          "type": "string"
        }
      ],
      "payable": false,
      "stateMutability": "view",
      "type": "function"
    },
    {
      "constant": true,
      "inputs": [],
      "name": "getStatus",
      "outputs": [
        {
          "internalType": "uint256",
          "name": "",
          "type": "uint256"
        },
        {
          "internalType": "uint256",
          "name": "",
          "type": "uint256"
        }
      ],
      "payable": false,
      "stateMutability": "view",
      "type": "function"
    },
    {
      "constant": true,
      "inputs": [],
      "name": "getContractAddr",
      "outputs": [
        {
          "internalType": "address",
          "name": "",
          "type": "address"
        }
      ],
      "payable": false,
      "stateMutability": "view",
      "type": "function"
    },
    {
      "constant": false,
      "inputs": [],
      "name": "finalize",
      "outputs": [],
      "payable": false,
      "stateMutability": "nonpayable",
      "type": "function"
    }
  ],
  "bytecode": "0x60806040523480156200001157600080fd5b5060405162000bf738038062000bf78339810160408190526200003491620001e7565b60008054336001600160a01b031991821617909155600180549091166001600160a01b038716179055835162000072906002906020870190620000c6565b50825162000088906003906020860190620000c6565b5060048290558051620000a3906005906020840190620000c6565b505060068054600101905550506000600781905560085550504260095562000368565b828054600181600116156101000203166002900490600052602060002090601f016020900481019282601f106200010957805160ff191683800117855562000139565b8280016001018555821562000139579182015b82811115620001395782518255916020019190600101906200011c565b50620001479291506200014b565b5090565b6200016891905b8082111562000147576000815560010162000152565b90565b8051620001788162000343565b92915050565b600082601f8301126200019057600080fd5b8151620001a7620001a182620002d6565b620002af565b91508082526020830160208301858383011115620001c457600080fd5b620001d183828462000310565b50505092915050565b805162000178816200035d565b600080600080600060a086880312156200020057600080fd5b60006200020e88886200016b565b95505060208601516001600160401b038111156200022b57600080fd5b62000239888289016200017e565b94505060408601516001600160401b038111156200025657600080fd5b62000264888289016200017e565b93505060606200027788828901620001da565b92505060808601516001600160401b038111156200029457600080fd5b620002a2888289016200017e565b9150509295509295909350565b6040518181016001600160401b0381118282101715620002ce57600080fd5b604052919050565b60006001600160401b03821115620002ed57600080fd5b506020601f91909101601f19160190565b60006001600160a01b03821662000178565b60005b838110156200032d57818101518382015260200162000313565b838111156200033d576000848401525b50505050565b6200034e81620002fe565b81146200035a57600080fd5b50565b6200034e8162000168565b61087f80620003786000396000f3fe608060405234801561001057600080fd5b50600436106100935760003560e01c806377800bd41161006657806377800bd4146100e9578063786cdec1146100f15780638fb4aabf146101065780639e4559391461011b578063ff332ab71461012357610093565b80633cd7594c146100985780634bb278f3146100b65780634e69d560146100c0578063633dfc70146100d6575b600080fd5b6100a061013c565b6040516100ad9190610745565b60405180910390f35b6100be6101d2565b005b6100c8610245565b6040516100ad92919061079b565b6100be6100e43660046105aa565b61024f565b6100a061032c565b6100f961038d565b6040516100ad919061078d565b61010e610393565b6040516100ad91906106d7565b61010e6103a2565b61012b6103a6565b6040516100ad9594939291906106e5565b60038054604080516020601f60026000196101006001881615020190951694909404938401819004810282018101909252828152606093909290918301828280156101c85780601f1061019d576101008083540402835291602001916101c8565b820191906000526020600020905b8154815290600101906020018083116101ab57829003601f168201915b5050505050905090565b60005433906001600160a01b031681146102075760405162461bcd60e51b81526004016101fe9061077d565b60405180910390fd5b4260095462093a80011061022d5760405162461bcd60e51b81526004016101fe9061076d565b73b02fbf1986d308a7c4e6626d5a7673dc09646dfe80ff5b6007546008549091565b60005433906001600160a01b0316811461027b5760405162461bcd60e51b81526004016101fe9061077d565b6001600160a01b038281166000908152600a60205260409020541661030f5782156102d7576001600160a01b0382166000818152600a6020526040902080546001600160a01b031916909117905560078054600101905561030a565b6001600160a01b0382166000818152600a6020526040902080546001600160a01b03191690911790556008805460010190555b610327565b60405162461bcd60e51b81526004016101fe9061075d565b505050565b60058054604080516020601f60026000196101006001881615020190951694909404938401819004810282018101909252828152606093909290918301828280156101c85780601f1061019d576101008083540402835291602001916101c8565b60045490565b6001546001600160a01b031690565b3090565b6001805460028054604080516020601f6000199785161561010002979097019093168490049586018390048302810183019091528481526000946060948594879486946001600160a01b03909316938593929183018282801561044a5780601f1061041f5761010080835404028352916020019161044a565b820191906000526020600020905b81548152906001019060200180831161042d57829003601f168201915b505060038054604080516020601f60026000196101006001881615020190951694909404938401819004810282018101909252828152969750606096955091935091508301828280156104de5780601f106104b3576101008083540402835291602001916104de565b820191906000526020600020905b8154815290600101906020018083116104c157829003601f168201915b50506004546005805460408051602060026001851615610100026000190190941693909304601f810184900484028201840190925281815297985092966060965094509092508301828280156105755780601f1061054a57610100808354040283529160200191610575565b820191906000526020600020905b81548152906001019060200180831161055857829003601f168201915b50989e979d50959b509399509097509395505050505050565b80356105998161081c565b92915050565b803561059981610833565b600080604083850312156105bd57600080fd5b60006105c9858561059f565b92505060206105da8582860161058e565b9150509250929050565b6105ed816107c3565b82525050565b60006105fe826107b6565b61060881856107ba565b93506106188185602086016107e2565b61062181610812565b9093019392505050565b60006106386012836107ba565b711d5cd95c88185b1c9958591e481d9bdd195960721b815260200192915050565b60006106666021836107ba565b7f6d696e696d756d2074696d6520686173206e6f7420656c6170736564207965748152601760f91b602082015260400192915050565b60006106a96016836107ba565b7529b2b73232b9103737ba1030baba3437b934bd32b21760511b815260200192915050565b6105ed816107df565b6020810161059982846105e4565b60a081016106f382886105e4565b818103602083015261070581876105f3565b9050818103604083015261071981866105f3565b905061072860608301856106ce565b818103608083015261073a81846105f3565b979650505050505050565b6020808252810161075681846105f3565b9392505050565b602080825281016105998161062b565b6020808252810161059981610659565b602080825281016105998161069c565b6020810161059982846106ce565b604081016107a982856106ce565b61075660208301846106ce565b5190565b90815260200190565b6000610599826107d3565b151590565b6001600160a01b031690565b90565b60005b838110156107fd5781810151838201526020016107e5565b8381111561080c576000848401525b50505050565b601f01601f191690565b610825816107c3565b811461083057600080fd5b50565b610825816107ce56fea365627a7a72315820b30cd6626fed624583dd8c3745f5356cf36659d0cf7d4c5bf69692bb6158f54c6c6578706572696d656e74616cf564736f6c63430005110040",
  "source": "pragma solidity >=0.5.0;\npragma experimental ABIEncoderV2;\n\nimport \"./MoonDust.sol\";\n//test contract to manage Verified tokens on harmony\n\n\ncontract TokenTruth{\n    address _owner;\n     address[] tokenAddr;\n     string[] tokenName;\n     string[] tokenSymbol;\n     uint[] decimals;\n     string[] tokenImg;\n     \n     uint index;\n     mapping(string => uint) indexByName;\n     mapping(string => string) imageBySymbol;\n     mapping(address => address) validatedcheck;\n     address[] pendingTokenContractAddresses;\n     mapping(string => address) contractAddrByName;\n     uint pendingTokenContractCount;\n     //addr name symb decimals image upvotes downvotes address of proposer\n     \n     constructor() public{\n         _owner = msg.sender;\n     }\n     \n     \n    modifier onlyAdmin(address _account)\n    {\n        require(\n            msg.sender == _owner,\n            \"Sender not authorized.\"\n        );\n        _;\n    }\n    \n        modifier onlyAuthorised(address _account)\n    {\n        MoonDust Authtoken = MoonDust(0xAD57d111725f093B2B7C25BAf792a2F3d68DCB68);\n        \n        require(\n           Authtoken.balanceOf(_account) > 100000000,\n            \"Sender not authorized.\"\n        );\n        _;\n    }\n    \n     \n     function propose_token(address _tokenAddr,string memory _tokenName, string memory _tokenSymbol, uint _decimals,string memory _tokenImg) public{\n         if(validatedcheck[_tokenAddr] == address(0x0000000000000000000000000000000000000000)){\n         ProposeToken _proposal = new ProposeToken(_tokenAddr, _tokenName, _tokenSymbol, _decimals, _tokenImg);\n         validatedcheck[_tokenAddr] = _tokenAddr;\n         address _proposal_address = _proposal.getContractAddr();\n         pendingTokenContractAddresses.push(_proposal_address);\n         contractAddrByName[_tokenName] = _proposal_address; \n         indexByName[_tokenName] = pendingTokenContractCount;\n         pendingTokenContractCount++;\n         }\n        else{\n             revert(\"Token already Submited\");\n         }\n     }\n     \n     function vote_token(bool _vote,string memory _tokenName) onlyAuthorised(msg.sender) public{\n         \n        address _proposal_address  = contractAddrByName[_tokenName];\n        ProposeToken vote = ProposeToken(_proposal_address);\n        vote.vote(_vote, msg.sender);//bad programing example\n     }\n     \n     function get_all_proposals() public view returns(address[] memory){\n         return pendingTokenContractAddresses;\n     }\n     function get_all_verified_tokens()public view returns(address[] memory,string[] memory,string[] memory,uint[] memory,string[] memory,uint){\n         return(tokenAddr,tokenName,tokenSymbol,decimals,tokenImg,index);\n     }\n     function validate_token(string memory _tokenName) onlyAdmin(msg.sender) public{\n            address _proposal_address  = contractAddrByName[_tokenName];\n            ProposeToken validate = ProposeToken(_proposal_address);\n            address _tokenAddr = validate.getaddr();\n            string memory _tokenSymbol = validate.getsymbol();\n            uint _decimals = validate.getdecimal();\n            string memory _tokenImg = validate.getimg();\n            tokenAddr.push(_tokenAddr);\n            tokenName.push(_tokenName);\n            tokenSymbol.push(_tokenSymbol);\n            decimals.push(_decimals);\n            tokenImg.push(_tokenImg);\n            index++;\n     }\n     function remove_proposed_contract(string memory _tokenName) public onlyAuthorised(msg.sender){\n        address _proposal_address  = contractAddrByName[_tokenName];\n        ProposeToken deletecontract = ProposeToken(_proposal_address);\n        deletecontract.finalize();\n        \n        uint _index = indexByName[_tokenName];\n        delete pendingTokenContractAddresses[_index];\n        delete contractAddrByName[_tokenName];\n\n        pendingTokenContractCount--;\n        \n     }\n     \n\n     \n     \n}\n\ncontract ProposeToken{\n    address _owner;\n    address tokenAddr;\n    string tokenName;\n    string tokenSymbol;\n    uint decimals;\n    string tokenImg;\n    uint index;\n    uint approvals; \n    uint unapprovals;\n    uint proposedTS;\n    mapping(address => address) voted_addresses;\n     \n     //addr name symb decimals image upvotes downvotes address of proposerk\n     \n    modifier onlyAdmin(address _account)\n    {\n        require(\n            msg.sender == _owner,\n            \"Sender not authorized.\"\n        );\n        _;\n    }\n        modifier only1weekafter()\n    {\n        require(\n            proposedTS + 604800 < now ,\n            \"minimum time has not elapsed yet.\"\n        );\n        _;\n    }\n\n     \n     constructor (address _tokenAddr,string memory _tokenName, string memory _tokenSymbol, uint _decimals,string memory _tokenImg) public{\n        _owner = msg.sender;\n        tokenAddr = _tokenAddr;\n        tokenName =  _tokenName;\n        tokenSymbol = _tokenSymbol;\n        decimals = _decimals;\n        tokenImg = _tokenImg;\n        index++;\n        approvals = 0;\n        unapprovals = 0;\n        proposedTS = now; \n         \n         \n     }\n     function vote(bool _vote, address _voter) onlyAdmin(msg.sender) public{\n         if(voted_addresses[_voter] == address(0x0000000000000000000000000000000000000000))\n         {\n         if(_vote){\n             voted_addresses[_voter] = _voter;\n             approvals++;\n         }\n         else{\n             voted_addresses[_voter] = _voter;\n             unapprovals++;\n         }\n         }\n         else{\n             revert(\"user already voted\");\n         }\n         \n     }\n     function getsymbol() public view returns(string memory){\n         return tokenSymbol;\n         \n     }\n          function getaddr() public view returns(address){\n         return tokenAddr;\n         \n     }\n          function getdecimal() public view returns(uint){\n         return decimals;\n         \n     }\n          function getimg() public view returns(string memory){\n         return tokenImg;\n         \n     }\n    function getTokenDetails() public view returns(address,string memory,string memory,uint,string memory){\n        address _tokenAddr = tokenAddr;\n        string memory _tokenName = tokenName;\n        string memory _tokenSymbol = tokenSymbol;\n        uint _decimals =  decimals;\n        string memory _tokenImg = tokenImg;\n        return (_tokenAddr, _tokenName, _tokenSymbol, _decimals,_tokenImg);\n    }\n    function getStatus() public view returns(uint,uint){\n        return (approvals,unapprovals);\n    }\n    function getContractAddr() public view returns (address){\n        address thisaddr = address(this);\n        return thisaddr;\n    }\n    function finalize() public onlyAdmin(msg.sender) only1weekafter{\n        address payable destroyer = 0xB02FbF1986D308A7C4E6626D5a7673DC09646dfe;\n        selfdestruct(destroyer);\n    }\n     \n}",
  "sourcePath": "/home/alexandre/Dev/harmony/Hackathon/tokentruth/contracts/TokenTruth.sol",
  "compiler": {
    "name": "solc",
    "version": "0.5.17+commit.d19bba13.Emscripten.clang"
  },
  "schemaVersion": "3.3.2",
  "updatedAt": "2021-02-02T14:37:43.211Z",
  "devdoc": {
    "methods": {}
  },
  "userdoc": {
    "methods": {}
  }
}