{
  "contractName": "TokenTruth",
  "abi": [
    {
      "inputs": [],
      "payable": false,
      "stateMutability": "nonpayable",
      "type": "constructor"
    },
    {
      "constant": false,
      "inputs": [
        {
          "internalType": "address",
          "name": "_tokenAddr",
          "type": "address"
        },
        {
          "internalType": "string",
          "name": "_tokenName",
          "type": "string"
        },
        {
          "internalType": "string",
          "name": "_tokenSymbol",
          "type": "string"
        },
        {
          "internalType": "uint256",
          "name": "_decimals",
          "type": "uint256"
        },
        {
          "internalType": "string",
          "name": "_tokenImg",
          "type": "string"
        }
      ],
      "name": "propose_token",
      "outputs": [],
      "payable": false,
      "stateMutability": "nonpayable",
      "type": "function"
    },
    {
      "constant": false,
      "inputs": [
        {
          "internalType": "bool",
          "name": "_vote",
          "type": "bool"
        },
        {
          "internalType": "string",
          "name": "_tokenName",
          "type": "string"
        }
      ],
      "name": "vote_token",
      "outputs": [],
      "payable": false,
      "stateMutability": "nonpayable",
      "type": "function"
    },
    {
      "constant": true,
      "inputs": [],
      "name": "get_all_proposals",
      "outputs": [
        {
          "internalType": "address[]",
          "name": "",
          "type": "address[]"
        }
      ],
      "payable": false,
      "stateMutability": "view",
      "type": "function"
    },
    {
      "constant": true,
      "inputs": [],
      "name": "get_all_verified_tokens",
      "outputs": [
        {
          "internalType": "address[]",
          "name": "",
          "type": "address[]"
        },
        {
          "internalType": "string[]",
          "name": "",
          "type": "string[]"
        },
        {
          "internalType": "string[]",
          "name": "",
          "type": "string[]"
        },
        {
          "internalType": "uint256[]",
          "name": "",
          "type": "uint256[]"
        },
        {
          "internalType": "string[]",
          "name": "",
          "type": "string[]"
        },
        {
          "internalType": "uint256",
          "name": "",
          "type": "uint256"
        }
      ],
      "payable": false,
      "stateMutability": "view",
      "type": "function"
    },
    {
      "constant": false,
      "inputs": [
        {
          "internalType": "string",
          "name": "_tokenName",
          "type": "string"
        }
      ],
      "name": "validate_token",
      "outputs": [],
      "payable": false,
      "stateMutability": "nonpayable",
      "type": "function"
    },
    {
      "constant": false,
      "inputs": [
        {
          "internalType": "string",
          "name": "_tokenName",
          "type": "string"
        }
      ],
      "name": "remove_proposed_contract",
      "outputs": [],
      "payable": false,
      "stateMutability": "nonpayable",
      "type": "function"
    }
  ],
  "bytecode": "0x608060405234801561001057600080fd5b50600080546001600160a01b03191633179055612235806100326000396000f3fe60806040523480156200001157600080fd5b50600436106200006a5760003560e01c80632a04842d146200006f5780636fc086ab14620000885780639a60594114620000af578063b50b686f14620000c6578063b916be7114620000dd578063fcb77ffd14620000f6575b600080fd5b620000866200008036600462001021565b6200010d565b005b620000926200025e565b604051620000a69695949392919062001428565b60405180910390f35b62000086620000c036600462001079565b620005c2565b62000086620000d736600462000f56565b6200096e565b620000e762000b60565b604051620000a6919062001415565b620000866200010736600462001079565b62000bc5565b6040516370a0823160e01b8152339073ad57d111725f093b2b7c25baf792a2f3d68dcb68906305f5e1009082906370a0823190620001509086906004016200139b565b60206040518083038186803b1580156200016957600080fd5b505afa1580156200017e573d6000803e3d6000fd5b505050506040513d601f19601f82011682018060405250620001a49190810190620010eb565b11620001cd5760405162461bcd60e51b8152600401620001c490620014d5565b60405180910390fd5b6000600b84604051620001e191906200138d565b90815260405190819003602001812054630633dfc760e41b82526001600160a01b031691508190819063633dfc7090620002229089903390600401620014a4565b600060405180830381600087803b1580156200023d57600080fd5b505af115801562000252573d6000803e3d6000fd5b50505050505050505050565b606080606080606060006001600260036004600560065485805480602002602001604051908101604052809291908181526020018280548015620002cc57602002820191906000526020600020905b81546001600160a01b03168152600190910190602001808311620002ad575b5050505050955084805480602002602001604051908101604052809291908181526020016000905b82821015620003a55760008481526020908190208301805460408051601f6002600019610100600187161502019094169390930492830185900485028101850190915281815292830182828015620003905780601f10620003645761010080835404028352916020019162000390565b820191906000526020600020905b8154815290600101906020018083116200037257829003601f168201915b505050505081526020019060010190620002f4565b50505050945083805480602002602001604051908101604052809291908181526020016000905b828210156200047d5760008481526020908190208301805460408051601f6002600019610100600187161502019094169390930492830185900485028101850190915281815292830182828015620004685780601f106200043c5761010080835404028352916020019162000468565b820191906000526020600020905b8154815290600101906020018083116200044a57829003601f168201915b505050505081526020019060010190620003cc565b50505050935082805480602002602001604051908101604052809291908181526020018280548015620004d057602002820191906000526020600020905b815481526020019060010190808311620004bb575b5050505050925081805480602002602001604051908101604052809291908181526020016000905b82821015620005a95760008481526020908190208301805460408051601f6002600019610100600187161502019094169390930492830185900485028101850190915281815292830182828015620005945780601f10620005685761010080835404028352916020019162000594565b820191906000526020600020905b8154815290600101906020018083116200057657829003601f168201915b505050505081526020019060010190620004f8565b50989f979e50959c50939a509850965092945050505050565b60005433906001600160a01b03168114620005f15760405162461bcd60e51b8152600401620001c490620014d5565b6000600b836040516200060591906200138d565b90815260408051918290036020908101832054638fb4aabf60e01b845291516001600160a01b03909216935083926000928492638fb4aabf9260048082019391829003018186803b1580156200065a57600080fd5b505afa1580156200066f573d6000803e3d6000fd5b505050506040513d601f19601f8201168201806040525062000695919081019062000f2d565b90506060826001600160a01b0316633cd7594c6040518163ffffffff1660e01b815260040160006040518083038186803b158015620006d357600080fd5b505afa158015620006e8573d6000803e3d6000fd5b505050506040513d6000823e601f3d908101601f19168201604052620007129190810190620010b2565b90506000836001600160a01b031663786cdec16040518163ffffffff1660e01b815260040160206040518083038186803b1580156200075057600080fd5b505afa15801562000765573d6000803e3d6000fd5b505050506040513d601f19601f820116820180604052506200078b9190810190620010eb565b90506060846001600160a01b03166377800bd46040518163ffffffff1660e01b815260040160006040518083038186803b158015620007c957600080fd5b505afa158015620007de573d6000803e3d6000fd5b505050506040513d6000823e601f3d908101601f19168201604052620008089190810190620010b2565b6001805480820182557fb10e2d527612073b26eecdfd717e6a320cf44b4afac2b0732d9fcbe2b7fa0cf60180546001600160a01b0319166001600160a01b038816179055600280549182018082556000919091528a519293509162000895917f405787fa12a823e0f2b7631cc41b3ba8828b3321ca811111fa75cd3aa3bb5ace019060208c019062000d8d565b505060038054600181018083556000929092528451620008dd917fc2575a0e9e593c00f959f8c92f12db2869c3395a3b0502d05e2516446f71f85b0190602087019062000d8d565b50506004805460018181019092557f8a35acfbc15ff81a39ae7d344fd709f28e8600b4aa8c65c6b64bfe7fe36bd19b01839055600580549182018082556000919091528251909162000959917f036b6384b5eca791c62761152d0c79bb0604c104a5fb6f4eb0703f3154bb3db090910190602085019062000d8d565b50506006805460010190555050505050505050565b6001600160a01b038581166000908152600960205260409020541662000b3f5760008585858585604051620009a39062000e12565b620009b3959493929190620013ab565b604051809103906000f080158015620009d0573d6000803e3d6000fd5b506001600160a01b03808816600081815260096020908152604080832080546001600160a01b0319169094179093558251639e45593960e01b81529251949550909392851692639e455939926004808201939291829003018186803b15801562000a3957600080fd5b505afa15801562000a4e573d6000803e3d6000fd5b505050506040513d601f19601f8201168201806040525062000a74919081019062000f2d565b600a80546001810182556000919091527fc65a7bb8d6351c1cf70c95a316cc6a92839c986682d98bc35f958f4883f9d2a80180546001600160a01b0319166001600160a01b0383161790556040519091508190600b9062000ad79089906200138d565b908152602001604051809103902060006101000a8154816001600160a01b0302191690836001600160a01b03160217905550600c5460078760405162000b1e91906200138d565b908152604051908190036020019020555050600c8054600101905562000b59565b60405162461bcd60e51b8152600401620001c490620014c3565b5050505050565b6060600a80548060200260200160405190810160405280929190818152602001828054801562000bba57602002820191906000526020600020905b81546001600160a01b0316815260019091019060200180831162000b9b575b505050505090505b90565b6040516370a0823160e01b8152339073ad57d111725f093b2b7c25baf792a2f3d68dcb68906305f5e1009082906370a082319062000c089086906004016200139b565b60206040518083038186803b15801562000c2157600080fd5b505afa15801562000c36573d6000803e3d6000fd5b505050506040513d601f19601f8201168201806040525062000c5c9190810190620010eb565b1162000c7c5760405162461bcd60e51b8152600401620001c490620014d5565b6000600b8460405162000c9091906200138d565b9081526040805191829003602001822054634bb278f360e01b835290516001600160a01b03909116925082918291634bb278f39160048082019260009290919082900301818387803b15801562000ce657600080fd5b505af115801562000cfb573d6000803e3d6000fd5b50505050600060078660405162000d1391906200138d565b9081526020016040518091039020549050600a818154811062000d3257fe5b600091825260209091200180546001600160a01b0319169055604051600b9062000d5e9088906200138d565b90815260405190819003602001902080546001600160a01b03191690555050600c805460001901905550505050565b828054600181600116156101000203166002900490600052602060002090601f016020900481019282601f1062000dd057805160ff191683800117855562000e00565b8280016001018555821562000e00579182015b8281111562000e0057825182559160200191906001019062000de3565b5062000e0e92915062000e20565b5090565b610bf780620015fc83390190565b62000bc291905b8082111562000e0e576000815560010162000e27565b803562000e4a81620015cb565b92915050565b805162000e4a81620015cb565b803562000e4a81620015e5565b600082601f83011262000e7c57600080fd5b813562000e9362000e8d826200150f565b620014e7565b9150808252602083016020830185838301111562000eb057600080fd5b62000ebd83828462001582565b50505092915050565b600082601f83011262000ed857600080fd5b815162000ee962000e8d826200150f565b9150808252602083016020830185838301111562000f0657600080fd5b62000ebd8382846200158e565b803562000e4a81620015f0565b805162000e4a81620015f0565b60006020828403121562000f4057600080fd5b600062000f4e848462000e50565b949350505050565b600080600080600060a0868803121562000f6f57600080fd5b600062000f7d888862000e3d565b955050602086013567ffffffffffffffff81111562000f9b57600080fd5b62000fa98882890162000e6a565b945050604086013567ffffffffffffffff81111562000fc757600080fd5b62000fd58882890162000e6a565b935050606062000fe88882890162000f13565b925050608086013567ffffffffffffffff8111156200100657600080fd5b620010148882890162000e6a565b9150509295509295909350565b600080604083850312156200103557600080fd5b600062001043858562000e5d565b925050602083013567ffffffffffffffff8111156200106157600080fd5b6200106f8582860162000e6a565b9150509250929050565b6000602082840312156200108c57600080fd5b813567ffffffffffffffff811115620010a457600080fd5b62000f4e8482850162000e6a565b600060208284031215620010c557600080fd5b815167ffffffffffffffff811115620010dd57600080fd5b62000f4e8482850162000ec6565b600060208284031215620010fe57600080fd5b600062000f4e848462000f20565b60006200111a838362001156565b505060200190565b6000620011308383620012a5565b9392505050565b60006200111a838362001382565b62001150816200156e565b82525050565b620011508162001550565b60006200116e826200153e565b6200117a818562001542565b9350620011878362001538565b8060005b83811015620011bb578151620011a288826200110c565b9750620011af8362001538565b9250506001016200118b565b509495945050505050565b6000620011d3826200153e565b620011df818562001542565b935083602082028501620011f38562001538565b8060005b8581101562001233578484038952815162001213858262001122565b9450620012208362001538565b60209a909a0199925050600101620011f7565b5091979650505050505050565b60006200124d826200153e565b62001259818562001542565b9350620012668362001538565b8060005b83811015620011bb57815162001281888262001137565b97506200128e8362001538565b9250506001016200126a565b62001150816200155d565b6000620012b2826200153e565b620012be818562001542565b9350620012d08185602086016200158e565b620012db81620015c1565b9093019392505050565b6000620012f2826200153e565b620012fe81856200154b565b9350620013108185602086016200158e565b9290920192915050565b60006200132960168362001542565b75151bdad95b88185b1c9958591e4814dd589b5a5d195960521b815260200192915050565b60006200135d60168362001542565b7529b2b73232b9103737ba1030baba3437b934bd32b21760511b815260200192915050565b620011508162000bc2565b6000620011308284620012e5565b6020810162000e4a828462001156565b60a08101620013bb828862001156565b8181036020830152620013cf8187620012a5565b90508181036040830152620013e58186620012a5565b9050620013f6606083018562001382565b81810360808301526200140a8184620012a5565b979650505050505050565b6020808252810162001130818462001161565b60c080825281016200143b818962001161565b90508181036020830152620014518188620011c6565b90508181036040830152620014678187620011c6565b905081810360608301526200147d818662001240565b90508181036080830152620014938185620011c6565b90506200140a60a083018462001382565b60408101620014b482856200129a565b62001130602083018462001145565b6020808252810162000e4a816200131a565b6020808252810162000e4a816200134e565b60405181810167ffffffffffffffff811182821017156200150757600080fd5b604052919050565b600067ffffffffffffffff8211156200152757600080fd5b506020601f91909101601f19160190565b60200190565b5190565b90815260200190565b919050565b600062000e4a8262001562565b151590565b6001600160a01b031690565b600062000e4a82600062000e4a8262001550565b82818337506000910152565b60005b83811015620015ab57818101518382015260200162001591565b83811115620015bb576000848401525b50505050565b601f01601f191690565b620015d68162001550565b8114620015e257600080fd5b50565b620015d6816200155d565b620015d68162000bc256fe60806040523480156200001157600080fd5b5060405162000bf738038062000bf78339810160408190526200003491620001e7565b60008054336001600160a01b031991821617909155600180549091166001600160a01b038716179055835162000072906002906020870190620000c6565b50825162000088906003906020860190620000c6565b5060048290558051620000a3906005906020840190620000c6565b505060068054600101905550506000600781905560085550504260095562000368565b828054600181600116156101000203166002900490600052602060002090601f016020900481019282601f106200010957805160ff191683800117855562000139565b8280016001018555821562000139579182015b82811115620001395782518255916020019190600101906200011c565b50620001479291506200014b565b5090565b6200016891905b8082111562000147576000815560010162000152565b90565b8051620001788162000343565b92915050565b600082601f8301126200019057600080fd5b8151620001a7620001a182620002d6565b620002af565b91508082526020830160208301858383011115620001c457600080fd5b620001d183828462000310565b50505092915050565b805162000178816200035d565b600080600080600060a086880312156200020057600080fd5b60006200020e88886200016b565b95505060208601516001600160401b038111156200022b57600080fd5b62000239888289016200017e565b94505060408601516001600160401b038111156200025657600080fd5b62000264888289016200017e565b93505060606200027788828901620001da565b92505060808601516001600160401b038111156200029457600080fd5b620002a2888289016200017e565b9150509295509295909350565b6040518181016001600160401b0381118282101715620002ce57600080fd5b604052919050565b60006001600160401b03821115620002ed57600080fd5b506020601f91909101601f19160190565b60006001600160a01b03821662000178565b60005b838110156200032d57818101518382015260200162000313565b838111156200033d576000848401525b50505050565b6200034e81620002fe565b81146200035a57600080fd5b50565b6200034e8162000168565b61087f80620003786000396000f3fe608060405234801561001057600080fd5b50600436106100935760003560e01c806377800bd41161006657806377800bd4146100e9578063786cdec1146100f15780638fb4aabf146101065780639e4559391461011b578063ff332ab71461012357610093565b80633cd7594c146100985780634bb278f3146100b65780634e69d560146100c0578063633dfc70146100d6575b600080fd5b6100a061013c565b6040516100ad9190610745565b60405180910390f35b6100be6101d2565b005b6100c8610245565b6040516100ad92919061079b565b6100be6100e43660046105aa565b61024f565b6100a061032c565b6100f961038d565b6040516100ad919061078d565b61010e610393565b6040516100ad91906106d7565b61010e6103a2565b61012b6103a6565b6040516100ad9594939291906106e5565b60038054604080516020601f60026000196101006001881615020190951694909404938401819004810282018101909252828152606093909290918301828280156101c85780601f1061019d576101008083540402835291602001916101c8565b820191906000526020600020905b8154815290600101906020018083116101ab57829003601f168201915b5050505050905090565b60005433906001600160a01b031681146102075760405162461bcd60e51b81526004016101fe9061077d565b60405180910390fd5b4260095462093a80011061022d5760405162461bcd60e51b81526004016101fe9061076d565b73b02fbf1986d308a7c4e6626d5a7673dc09646dfe80ff5b6007546008549091565b60005433906001600160a01b0316811461027b5760405162461bcd60e51b81526004016101fe9061077d565b6001600160a01b038281166000908152600a60205260409020541661030f5782156102d7576001600160a01b0382166000818152600a6020526040902080546001600160a01b031916909117905560078054600101905561030a565b6001600160a01b0382166000818152600a6020526040902080546001600160a01b03191690911790556008805460010190555b610327565b60405162461bcd60e51b81526004016101fe9061075d565b505050565b60058054604080516020601f60026000196101006001881615020190951694909404938401819004810282018101909252828152606093909290918301828280156101c85780601f1061019d576101008083540402835291602001916101c8565b60045490565b6001546001600160a01b031690565b3090565b6001805460028054604080516020601f6000199785161561010002979097019093168490049586018390048302810183019091528481526000946060948594879486946001600160a01b03909316938593929183018282801561044a5780601f1061041f5761010080835404028352916020019161044a565b820191906000526020600020905b81548152906001019060200180831161042d57829003601f168201915b505060038054604080516020601f60026000196101006001881615020190951694909404938401819004810282018101909252828152969750606096955091935091508301828280156104de5780601f106104b3576101008083540402835291602001916104de565b820191906000526020600020905b8154815290600101906020018083116104c157829003601f168201915b50506004546005805460408051602060026001851615610100026000190190941693909304601f810184900484028201840190925281815297985092966060965094509092508301828280156105755780601f1061054a57610100808354040283529160200191610575565b820191906000526020600020905b81548152906001019060200180831161055857829003601f168201915b50989e979d50959b509399509097509395505050505050565b80356105998161081c565b92915050565b803561059981610833565b600080604083850312156105bd57600080fd5b60006105c9858561059f565b92505060206105da8582860161058e565b9150509250929050565b6105ed816107c3565b82525050565b60006105fe826107b6565b61060881856107ba565b93506106188185602086016107e2565b61062181610812565b9093019392505050565b60006106386012836107ba565b711d5cd95c88185b1c9958591e481d9bdd195960721b815260200192915050565b60006106666021836107ba565b7f6d696e696d756d2074696d6520686173206e6f7420656c6170736564207965748152601760f91b602082015260400192915050565b60006106a96016836107ba565b7529b2b73232b9103737ba1030baba3437b934bd32b21760511b815260200192915050565b6105ed816107df565b6020810161059982846105e4565b60a081016106f382886105e4565b818103602083015261070581876105f3565b9050818103604083015261071981866105f3565b905061072860608301856106ce565b818103608083015261073a81846105f3565b979650505050505050565b6020808252810161075681846105f3565b9392505050565b602080825281016105998161062b565b6020808252810161059981610659565b602080825281016105998161069c565b6020810161059982846106ce565b604081016107a982856106ce565b61075660208301846106ce565b5190565b90815260200190565b6000610599826107d3565b151590565b6001600160a01b031690565b90565b60005b838110156107fd5781810151838201526020016107e5565b8381111561080c576000848401525b50505050565b601f01601f191690565b610825816107c3565b811461083057600080fd5b50565b610825816107ce56fea365627a7a72315820b30cd6626fed624583dd8c3745f5356cf36659d0cf7d4c5bf69692bb6158f54c6c6578706572696d656e74616cf564736f6c63430005110040a365627a7a72315820558bfed90236053e485860a4d5b417ab3641dae3ece43c511101101138ce52076c6578706572696d656e74616cf564736f6c63430005110040",
  "source": "pragma solidity >=0.5.0;\npragma experimental ABIEncoderV2;\n\nimport \"./MoonDust.sol\";\n//test contract to manage Verified tokens on harmony\n\n\ncontract TokenTruth{\n    address _owner;\n     address[] tokenAddr;\n     string[] tokenName;\n     string[] tokenSymbol;\n     uint[] decimals;\n     string[] tokenImg;\n     \n     uint index;\n     mapping(string => uint) indexByName;\n     mapping(string => string) imageBySymbol;\n     mapping(address => address) validatedcheck;\n     address[] pendingTokenContractAddresses;\n     mapping(string => address) contractAddrByName;\n     uint pendingTokenContractCount;\n     //addr name symb decimals image upvotes downvotes address of proposer\n     \n     constructor() public{\n         _owner = msg.sender;\n     }\n     \n     \n    modifier onlyAdmin(address _account)\n    {\n        require(\n            msg.sender == _owner,\n            \"Sender not authorized.\"\n        );\n        _;\n    }\n    \n        modifier onlyAuthorised(address _account)\n    {\n        MoonDust Authtoken = MoonDust(0xAD57d111725f093B2B7C25BAf792a2F3d68DCB68);\n        \n        require(\n           Authtoken.balanceOf(_account) > 100000000,\n            \"Sender not authorized.\"\n        );\n        _;\n    }\n    \n     \n     function propose_token(address _tokenAddr,string memory _tokenName, string memory _tokenSymbol, uint _decimals,string memory _tokenImg) public{\n         if(validatedcheck[_tokenAddr] == address(0x0000000000000000000000000000000000000000)){\n         ProposeToken _proposal = new ProposeToken(_tokenAddr, _tokenName, _tokenSymbol, _decimals, _tokenImg);\n         validatedcheck[_tokenAddr] = _tokenAddr;\n         address _proposal_address = _proposal.getContractAddr();\n         pendingTokenContractAddresses.push(_proposal_address);\n         contractAddrByName[_tokenName] = _proposal_address; \n         indexByName[_tokenName] = pendingTokenContractCount;\n         pendingTokenContractCount++;\n         }\n        else{\n             revert(\"Token already Submited\");\n         }\n     }\n     \n     function vote_token(bool _vote,string memory _tokenName) onlyAuthorised(msg.sender) public{\n         \n        address _proposal_address  = contractAddrByName[_tokenName];\n        ProposeToken vote = ProposeToken(_proposal_address);\n        vote.vote(_vote, msg.sender);//bad programing example\n     }\n     \n     function get_all_proposals() public view returns(address[] memory){\n         return pendingTokenContractAddresses;\n     }\n     function get_all_verified_tokens()public view returns(address[] memory,string[] memory,string[] memory,uint[] memory,string[] memory,uint){\n         return(tokenAddr,tokenName,tokenSymbol,decimals,tokenImg,index);\n     }\n     function validate_token(string memory _tokenName) onlyAdmin(msg.sender) public{\n            address _proposal_address  = contractAddrByName[_tokenName];\n            ProposeToken validate = ProposeToken(_proposal_address);\n            address _tokenAddr = validate.getaddr();\n            string memory _tokenSymbol = validate.getsymbol();\n            uint _decimals = validate.getdecimal();\n            string memory _tokenImg = validate.getimg();\n            tokenAddr.push(_tokenAddr);\n            tokenName.push(_tokenName);\n            tokenSymbol.push(_tokenSymbol);\n            decimals.push(_decimals);\n            tokenImg.push(_tokenImg);\n            index++;\n     }\n     function remove_proposed_contract(string memory _tokenName) public onlyAuthorised(msg.sender){\n        address _proposal_address  = contractAddrByName[_tokenName];\n        ProposeToken deletecontract = ProposeToken(_proposal_address);\n        deletecontract.finalize();\n        \n        uint _index = indexByName[_tokenName];\n        delete pendingTokenContractAddresses[_index];\n        delete contractAddrByName[_tokenName];\n\n        pendingTokenContractCount--;\n        \n     }\n     \n\n     \n     \n}\n\ncontract ProposeToken{\n    address _owner;\n    address tokenAddr;\n    string tokenName;\n    string tokenSymbol;\n    uint decimals;\n    string tokenImg;\n    uint index;\n    uint approvals; \n    uint unapprovals;\n    uint proposedTS;\n    mapping(address => address) voted_addresses;\n     \n     //addr name symb decimals image upvotes downvotes address of proposerk\n     \n    modifier onlyAdmin(address _account)\n    {\n        require(\n            msg.sender == _owner,\n            \"Sender not authorized.\"\n        );\n        _;\n    }\n        modifier only1weekafter()\n    {\n        require(\n            proposedTS + 604800 < now ,\n            \"minimum time has not elapsed yet.\"\n        );\n        _;\n    }\n\n     \n     constructor (address _tokenAddr,string memory _tokenName, string memory _tokenSymbol, uint _decimals,string memory _tokenImg) public{\n        _owner = msg.sender;\n        tokenAddr = _tokenAddr;\n        tokenName =  _tokenName;\n        tokenSymbol = _tokenSymbol;\n        decimals = _decimals;\n        tokenImg = _tokenImg;\n        index++;\n        approvals = 0;\n        unapprovals = 0;\n        proposedTS = now; \n         \n         \n     }\n     function vote(bool _vote, address _voter) onlyAdmin(msg.sender) public{\n         if(voted_addresses[_voter] == address(0x0000000000000000000000000000000000000000))\n         {\n         if(_vote){\n             voted_addresses[_voter] = _voter;\n             approvals++;\n         }\n         else{\n             voted_addresses[_voter] = _voter;\n             unapprovals++;\n         }\n         }\n         else{\n             revert(\"user already voted\");\n         }\n         \n     }\n     function getsymbol() public view returns(string memory){\n         return tokenSymbol;\n         \n     }\n          function getaddr() public view returns(address){\n         return tokenAddr;\n         \n     }\n          function getdecimal() public view returns(uint){\n         return decimals;\n         \n     }\n          function getimg() public view returns(string memory){\n         return tokenImg;\n         \n     }\n    function getTokenDetails() public view returns(address,string memory,string memory,uint,string memory){\n        address _tokenAddr = tokenAddr;\n        string memory _tokenName = tokenName;\n        string memory _tokenSymbol = tokenSymbol;\n        uint _decimals =  decimals;\n        string memory _tokenImg = tokenImg;\n        return (_tokenAddr, _tokenName, _tokenSymbol, _decimals,_tokenImg);\n    }\n    function getStatus() public view returns(uint,uint){\n        return (approvals,unapprovals);\n    }\n    function getContractAddr() public view returns (address){\n        address thisaddr = address(this);\n        return thisaddr;\n    }\n    function finalize() public onlyAdmin(msg.sender) only1weekafter{\n        address payable destroyer = 0xB02FbF1986D308A7C4E6626D5a7673DC09646dfe;\n        selfdestruct(destroyer);\n    }\n     \n}",
  "sourcePath": "/home/alexandre/Dev/harmony/Hackathon/tokentruth/contracts/TokenTruth.sol",
  "compiler": {
    "name": "solc",
    "version": "0.5.17+commit.d19bba13.Emscripten.clang"
  },
  "schemaVersion": "3.3.2",
  "updatedAt": "2021-02-02T14:38:30.103Z",
  "networkType": "ethereum",
  "devdoc": {
    "methods": {}
  },
  "userdoc": {
    "methods": {}
  }
}